:020000040800F2
:1000000000280020E90E0008E9040008EB040008BD
:10001000ED040008EF040008F104000800000000EF
:10002000000000000000000000000000F3040008D1
:10003000F504000800000000F7040008F9040008B7
:10004000310F0008310F0008310F0008310F000890
:10005000310F0008310F0008310F0008310F000880
:10006000310F0008310F0008310F0008310F000870
:10007000310F0008310F0008310F0008310F000860
:10008000310F0008310F0008310F0008310F000850
:10009000310F0008310F0008310F0008310F000840
:1000A000310F0008310F0008310F0008310F000830
:1000B000310F0008310F000800000000310F000868
:1000C000310F00080000000000000000310F0008A0
:1000D00000000000310F0008310F00080000000090
:1000E000310F0008310F0008310F00080000000038
:1000F0000000000000000000000000000000000000
:0C01000000000000000000005FF808F1A3
:10010C0010B5054C237833B9044B13B10448AFF345
:10011C0000800123237010BD0C00002000000000A3
:10012C008C0F000808B5034B1BB103490348AFF310
:10013C00008008BD00000000100000208C0F00089B
:10014C002DE9F04188B0002404940594069407949A
:10015C00214B9A6942F020029A619A6902F02002BE
:10016C000192019A9A6942F004029A619A6902F02A
:10017C0004020292029A9A6942F008029A619B69FF
:10018C0003F008030393039BDFF8508022464FF4DF
:10019C00FC61404600F03CFE114D22464FF67F615B
:1001AC00284600F035FE4FF4FC63049301270597B5
:1001BC0006940226079604A9404600F019FD4FF656
:1001CC007F63049305970694079604A9284600F0CC
:1001DC000FFD08B0BDE8F08100100240000801409E
:1001EC00000C014038B5124D01222A70114C20210F
:1001FC00204600F00DFE2A784021204600F008FE33
:10020C002A788021204600F003FE2A784FF4807172
:10021C00204600F0FDFD2A784FF40071204600F0D6
:10022C00F7FD2A784FF48061204600F0F1FD38BDCF
:10023C002800002000080140F8B50F4616461D4660
:10024C00134C02460121204600F0E2FD3A46022101
:10025C00204600F0DDFD32460421204600F0D8FD9A
:10026C002A460821204600F0D3FD9DF818201021C5
:10027C00204600F0CDFD9DF81C202021204600F0EA
:10028C00C7FD9DF820204021204600F0C1FDF8BD9F
:10029C00000C014000B585B0092810D8DFE800F04B
:1002AC0005121C26313B454F596301230293002054
:1002BC0001900090034602460146FFF7BDFF05B0D2
:1002CC005DF804FB0120029001900090034600228F
:1002DC001146FFF7B1FFF2E70020029001220192D4
:1002EC00009003460146FFF7A7FFE8E700200290C5
:1002FC00012301930093034602460146FFF79CFF3E
:10030C00DDE70021029101910120009003460A468D
:10031C00FFF792FFD3E7002002900190012100919A
:10032C0003460246FFF788FFC9E7002002900190C0
:10033C000090034602460121FFF77EFFBFE7012331
:10034C00029301930093002211461046FFF774FFAD
:10035C00B5E700200290019000900346024601464A
:10036C00FFF76AFFABE70020029001900123009396
:10037C00034602460146FFF75FFFA0E710B50328CE
:10038C0011D8DFE800F00211202FFFF72BFF1D4CD6
:10039C0000222021204600F03BFD00224FF480611A
:1003AC00204600F035FD10BDFFF71CFF154C002258
:1003BC002021204600F02CFD00224FF40071204635
:1003CC0000F026FDEFE7FFF70DFF0E4C0022802119
:1003DC00204600F01DFD00224FF48071204600F0F5
:1003EC0017FDE0E7FFF7FEFE064C002240212046F9
:1003FC0000F00EFD00224FF48071204600F008FD45
:10040C00D1E700BF0008014072B6FEE700B591B01D
:10041C002822002106A800F0ABFD002301930293D3
:10042C00039304930593012206924FF480330793B0
:10043C000A9202220D920E934FF4E0130F9306A82A
:10044C0000F0EEF880B90F230193022102910023F2
:10045C0003934FF480620492059301A800F012FB01
:10046C0020B911B05DF804FBFFF7CEFFFFF7CCFF0E
:10047C0070B500F087F8FFF7C9FFFFF761FE0025A4
:10048C002C4616E0002017E0264606E0022604E083
:10049C00062602E0022600E00526451CEDB2FFF719
:1004AC006DFF741EE4B23046FFF7F4FE642000F0DA
:1004BC008DF8032DE6D8284664B90328E4D801A3A7
:1004CC0053F820F0A5040008990400089D040008C6
:1004DC00A104000805462646E3E700BFFEE7FEE759
:1004EC00FEE7FEE7FEE770477047704708B500F07F
:1004FC005BF808BD82B00E4B9A6942F001029A611A
:10050C009A6902F001020092009ADA6942F0805274
:10051C00DA61DB6903F080530193019B054A536850
:10052C0023F0E06343F00073536002B0704700BFE8
:10053C00001002400000014010B504460E4B187824
:10054C004FF47A73B3FBF0F30C4A1068B0FBF3F082
:10055C0000F0AEFC68B90F2C01D901200AE0002292
:10056C0021464FF0FF3000F06BFC054B1C60002067
:10057C0000E0012010BD00BF00000020080000209A
:10058C000400002008B5074A136843F010031360F9
:10059C00032000F043FC0F20FFF7CEFFFFF7AAFF6C
:1005AC00002008BD00200240034A1168034B1B7851
:1005BC000B441360704700BF2C000020000000208B
:1005CC00014B1868704700BF2C00002038B504465A
:1005DC00FFF7F6FF0546B4F1FF3F02D0044B1B7842
:1005EC001C44FFF7EDFF401BA042FAD338BD00BFFF
:1005FC000000002082B0084B1B68084AA2FB0323B2
:10060C005B0A00FB03F3019300BF019B5A1E01928E
:10061C00002BF9D102B0704708000020D34D6210B6
:10062C00002800F0F18170B582B00446036813F025
:10063C00010F2CD0994B5B6803F00C03042B1DD0DD
:10064C00964B5B6803F00C03082B12D06368B3F570
:10065C00803F41D0002B55D103F1804303F5043387
:10066C001A6822F480321A601A6822F480221A6006
:10067C0037E08A4B5B6813F4803FE7D0874B1B68ED
:10068C0013F4003F03D06368002B00F0BF81236894
:10069C0013F0020F75D0814B5B6813F00C0F5FD019
:1006AC007E4B5B6803F00C03082B54D02369002BA2
:1006BC0000F08A807A4B01221A60FFF781FF054611
:1006CC00764B1B6813F0020F75D1FFF779FF401BB7
:1006DC000228F5D903209EE1704A136843F4803355
:1006EC001360636843B3FFF76BFF05466B4B1B68E6
:1006FC0013F4003FCBD1FFF763FF401B6428F5D9FF
:10070C00032088E1B3F5A02F09D0644B1A6822F4BA
:10071C0080321A601A6822F480221A60E1E703F131
:10072C008043A3F53C331A6842F480221A601A689D
:10073C0042F480321A60D4E7FFF742FF0546574B6C
:10074C001B6813F4003FA2D0FFF73AFF401B64284C
:10075C00F5D903205FE1514B5B6813F4803FA5D1C1
:10076C004E4B1B6813F0020F03D02369012B40F092
:10077C004F814A4A136823F0F803616943EAC103C5
:10078C001360236813F0080F33D0A369002B5CD0DF
:10079C00434B0122C3F88024FFF712FF05463F4B61
:1007AC005B6A13F0020F21D1FFF70AFF401B0228EE
:1007BC00F5D903202FE1394A136823F0F803616956
:1007CC0043EAC1031360DCE7354B00221A60FFF7E4
:1007DC00F7FE0546314B1B6813F0020FD1D0FFF723
:1007EC00EFFE401B0228F5D9032014E10120FFF78E
:1007FC0001FF236813F0040F00F09680274BDB6990
:10080C0013F0805F34D1254BDA6942F08052DA6103
:10081C00DB6903F080530193019B0125214B1B687D
:10082C0013F4807F26D0E368012B3DD0002B53D1ED
:10083C0003F1804303F504331A6A22F001021A62B1
:10084C001A6A22F004021A6233E0154B0022C3F834
:10085C008024FFF7B5FE0546104B5B6A13F0020FC0
:10086C00C7D0FFF7ADFE401B0228F5D90320D2E01C
:10087C000025D3E70B4A136843F480731360FFF72A
:10088C009FFE0646074B1B6813F4807FCBD1FFF706
:10089C0097FE801B6428F5D90320BCE000100240B1
:1008AC0000004242007000405F4A136A43F00103AB
:1008BC001362E36833B3FFF783FE06465A4B1B6A99
:1008CC0013F0020F2FD1FFF77BFE801B41F2883310
:1008DC009842F3D903209EE0052B09D0524B1A6A9B
:1008EC0022F001021A621A6A22F004021A62E0E78C
:1008FC004D4B1A6A42F004021A621A6A42F0010263
:10090C001A62D6E7FFF75CFE0646474B1B6A13F0EC
:10091C00020F08D0FFF754FE801B41F28833984237
:10092C00F3D9032077E0E5B9E369002B72D03E4A96
:10093C00526802F00C02082A56D0022B17D03B4BFF
:10094C0000221A66FFF73CFE0446374B1B6813F077
:10095C00007F47D0FFF734FE001B0228F5D9032097
:10096C0059E0314AD36923F08053D361DCE72F4B34
:10097C0000221A66FFF724FE05462B4B1B6813F06A
:10098C00007F06D0FFF71CFE401B0228F5D9032080
:10099C0041E0236AB3F5803F1AD023494B6823F416
:1009AC007413226A606A024313434B601F4B01228B
:1009BC001A66FFF705FE04461B4B1B6813F0007FFD
:1009CC000ED1FFF7FDFD001B0228F5D9032022E014
:1009DC00154A536823F40033A1680B435360DCE7DA
:1009EC00002018E0002016E0012B16D00E4B5B689F
:1009FC0003F48031226A914211D103F47013626ABC
:100A0C0093420ED1002006E001207047012002E045
:100A1C00012000E0002002B070BD0120FBE70120A6
:100A2C00F9E70120F7E700BF001002400000424246
:100A3C000F4B5B6803F00C02082A01D00D4870477D
:100A4C00C3F383420C49885C13F4803F0BD0084BF2
:100A5C005B68C3F34043094AD35C064A02FB00F0CF
:100A6C00B0FBF3F07047064B03FB00F0704700BF80
:100A7C000010024000127A00A40F0008B40F000806
:100A8C0000093D00002800F0A08070B50D4604461A
:100A9C00524B1B6803F007038B420BD24F4A13686F
:100AAC0023F007030B431360136803F007038B4217
:100ABC0040F08D80236813F0020F17D013F0040F51
:100ACC0004D0474A536843F4E0635360236813F03F
:100ADC00080F04D0424A536843F460535360404AB1
:100AEC00536823F0F003A1680B435360236813F0A1
:100AFC00010F31D06368012B20D0022B25D0384A4E
:100B0C00126812F0020F64D035494A6822F00302D1
:100B1C0013434B60FFF754FD0646314B5B6803F003
:100B2C000C036268B3EB820F16D0FFF749FD801BF4
:100B3C0041F288339842F0D9032045E0284A1268E4
:100B4C0012F4003FE0D101203EE0254A126812F079
:100B5C00007FD9D1012037E0204B1B6803F007033D
:100B6C00AB420AD91D4A136823F007032B431360C9
:100B7C00136803F00703AB422DD1236813F0040F65
:100B8C0006D0174A536823F4E063E1680B435360C3
:100B9C00236813F0080F07D0114A536823F46053ED
:100BAC00216943EAC1035360FFF742FF0C4B5B68BA
:100BBC00C3F303130B4AD35CD8400B4B18600B4B9D
:100BCC001868FFF7B9FC002070BD012070470120A8
:100BDC00FAE70120F8E70120F6E700BF0020024009
:100BEC0000100240B80F000808000020040000208C
:100BFC0070B582B00024A4468BE07F4DAA4210D081
:100C0C0007D97E4DAA420CD005F58035AA4208D0F2
:100C1C0015E0A5F58015AA4203D005F57025AA426A
:100C2C0009D18A68002A00F0BF80012A00F0B78041
:100C3C004361082403E0A5F58015AA42F1D0BEF16A
:100C4C00FF0F00F2B3800646BEF1FF0F00F2B0803A
:100C5C004FEA8C0233680F25954023EA050304FA0A
:100C6C0002F2134333604B6813F0805F4FD0644B38
:100C7C009A6942F001029A619B6903F001030193A6
:100C8C00019B4FEA9C02951C5E4B53F825600CF0BF
:100C9C0003039D000F23AB4026EA03065A4B9842F0
:100CAC0000F08C8003F58063984200F0898003F596
:100CBC008063984200F080800323AB4033430232C0
:100CCC00504D45F822304B6813F4801F7AD04F4AB0
:100CDC00936843EA0E0393604B6813F4001F77D0BC
:100CEC004A4AD36843EA0E03D3604B6813F4003FBF
:100CFC0074D0464A536843EA0E0353604B6813F4AE
:100D0C00803F71D0414A136843EA0E0313600CF123
:100D1C00010C0A6832FA0CF36CD0012303FA0CF3C1
:100D2C0002EA030E33EA0202F1D14A68122A3FF6B4
:100D3C0064AF122A83D801A555F822F02F0C0008B5
:100D4C00950D00089F0D0008B10D00084B0C000814
:100D5C004B0C00084B0C00084B0C00084B0C00080B
:100D6C004B0C00084B0C00084B0C00084B0C0008FB
:100D7C004B0C00084B0C00084B0C00084B0C0008EB
:100D8C00990D0008A50D0008CC6858E7CC68043410
:100D9C0055E7CC68083452E7CC680C344FE7036154
:100DAC0008244CE700244AE7042448E7061D4BE7D7
:100DBC00ACF1080292004DE702237EE700237CE7AA
:100DCC0001237AE7114A936823EA0E03936083E7C1
:100DDC000E4AD36823EA0E03D36086E70B4A5368A6
:100DEC0023EA0E03536089E7084A136823EA0E03CB
:100DFC0013608CE702B070BD0000221000003110AF
:100E0C0000100240000001400008014000040140B5
:100E1C000AB101617047090401617047074AD36840
:100E2C0023F4E0631B041B0C000200F4E06003439A
:100E3C0043F0BF6343F40033D360704700ED00E030
:100E4C0000B5194BDB68C3F30223C3F1070CBCF1EB
:100E5C00040F28BF4FF0040C03F1040EBEF1060F73
:100E6C0018D9033B4FF0FF3E0EFA0CFC21EA0C01A3
:100E7C0099400EFA03F322EA0303194300280BDB13
:100E8C000901C9B200F1604000F5614080F800131F
:100E9C005DF804FB0023E5E700F00F000901C9B27F
:100EAC00024B1954F4E700BF00ED00E014ED00E034
:100EBC000138B0F1807F0BD24FF0E0235861054A26
:100ECC00F02182F823100020986107221A617047E4
:100EDC000120704700ED00E070470000FFF7FCFFB9
:100EEC000B480C490C4A002302E0D458C45004337C
:100EFC00C4188C42F9D3094A094C002301E0136051
:100F0C000432A242FBD300F00FF8FFF7B1FA70479E
:100F1C00000000200C000020D00F00080C00002066
:100F2C0030000020FEE7000070B500260C4D0D4C83
:100F3C00641BA410A64209D100F022F800260A4D29
:100F4C000A4C641BA410A64205D170BD55F8043B95
:100F5C0098470136EEE755F8043B98470136F2E71F
:100F6C00C80F0008C80F0008C80F0008CC0F0008F5
:100F7C0003460244934200D1704703F8011BF9E782
:100F8C00F8B500BFF8BC08BC9E467047F8B500BF6A
:080F9C00F8BC08BC9E4670473A
:100FA40002030405060708090A0B0C0D0E0F1010A6
:100FB4000102000000000000000000000102030420
:040FC400060708090B
:040FC80031010008EB
:040FCC000D0100080B
:0C0FD00001000000100000000024F400EC
:0400000508000EE9F8
:00000001FF
